{
  "contractName": "ClientRole",
  "abi": [
    {
      "inputs": [],
      "stateMutability": "nonpayable",
      "type": "constructor"
    },
    {
      "anonymous": false,
      "inputs": [
        {
          "indexed": true,
          "internalType": "address",
          "name": "addr",
          "type": "address"
        }
      ],
      "name": "clientAdded",
      "type": "event"
    },
    {
      "anonymous": false,
      "inputs": [
        {
          "indexed": true,
          "internalType": "address",
          "name": "addr",
          "type": "address"
        }
      ],
      "name": "clientRemoved",
      "type": "event"
    },
    {
      "inputs": [
        {
          "internalType": "address",
          "name": "account",
          "type": "address"
        }
      ],
      "name": "isClient",
      "outputs": [
        {
          "internalType": "bool",
          "name": "",
          "type": "bool"
        }
      ],
      "stateMutability": "view",
      "type": "function",
      "constant": true
    },
    {
      "inputs": [
        {
          "internalType": "address",
          "name": "account",
          "type": "address"
        }
      ],
      "name": "addClient",
      "outputs": [],
      "stateMutability": "nonpayable",
      "type": "function"
    },
    {
      "inputs": [],
      "name": "renounceConsumer",
      "outputs": [],
      "stateMutability": "nonpayable",
      "type": "function"
    }
  ],
  "bytecode": "0x608060405234801561001057600080fd5b5061002660003361006e60201b6100db1760201c565b3373ffffffffffffffffffffffffffffffffffffffff167ffcd36702cdc849a0f2af09a25d9d3ef48d56aa56cac2968d1357a50831274ad760405160405180910390a26101b2565b600073ffffffffffffffffffffffffffffffffffffffff168173ffffffffffffffffffffffffffffffffffffffff1614156100a857600080fd5b6100b8828261012060201b60201c565b156100c257600080fd5b60018260000160008373ffffffffffffffffffffffffffffffffffffffff1673ffffffffffffffffffffffffffffffffffffffff16815260200190815260200160002060006101000a81548160ff0219169083151502179055505050565b60008073ffffffffffffffffffffffffffffffffffffffff168273ffffffffffffffffffffffffffffffffffffffff16141561015b57600080fd5b8260000160008373ffffffffffffffffffffffffffffffffffffffff1673ffffffffffffffffffffffffffffffffffffffff16815260200190815260200160002060009054906101000a900460ff16905092915050565b610462806101c16000396000f3fe608060405234801561001057600080fd5b50600436106100415760003560e01c806343928cfd1461004657806361e6982d1461006257806384b7964f1461006c575b600080fd5b610060600480360381019061005b91906103c9565b61009c565b005b61006a6100bc565b005b610086600480360381019061008191906103c9565b6100c7565b6040516100939190610411565b60405180910390f35b6100a7600033610187565b6100b057600080fd5b6100b981610219565b50565b6100c53361026a565b565b60006100d4600083610187565b9050919050565b600073ffffffffffffffffffffffffffffffffffffffff168173ffffffffffffffffffffffffffffffffffffffff16141561011557600080fd5b61011f8282610187565b1561012957600080fd5b60018260000160008373ffffffffffffffffffffffffffffffffffffffff1673ffffffffffffffffffffffffffffffffffffffff16815260200190815260200160002060006101000a81548160ff0219169083151502179055505050565b60008073ffffffffffffffffffffffffffffffffffffffff168273ffffffffffffffffffffffffffffffffffffffff1614156101c257600080fd5b8260000160008373ffffffffffffffffffffffffffffffffffffffff1673ffffffffffffffffffffffffffffffffffffffff16815260200190815260200160002060009054906101000a900460ff16905092915050565b6102246000826100db565b8073ffffffffffffffffffffffffffffffffffffffff167ffcd36702cdc849a0f2af09a25d9d3ef48d56aa56cac2968d1357a50831274ad760405160405180910390a250565b6102756000826102bb565b8073ffffffffffffffffffffffffffffffffffffffff167f390aff1c3650dc39762898653cf9b80cd12d64b18f872002b5e0a5869d69e84860405160405180910390a250565b600073ffffffffffffffffffffffffffffffffffffffff168173ffffffffffffffffffffffffffffffffffffffff1614156102f557600080fd5b6102ff8282610187565b61030857600080fd5b60008260000160008373ffffffffffffffffffffffffffffffffffffffff1673ffffffffffffffffffffffffffffffffffffffff16815260200190815260200160002060006101000a81548160ff0219169083151502179055505050565b600080fd5b600073ffffffffffffffffffffffffffffffffffffffff82169050919050565b60006103968261036b565b9050919050565b6103a68161038b565b81146103b157600080fd5b50565b6000813590506103c38161039d565b92915050565b6000602082840312156103df576103de610366565b5b60006103ed848285016103b4565b91505092915050565b60008115159050919050565b61040b816103f6565b82525050565b60006020820190506104266000830184610402565b9291505056fea2646970667358221220cf7a2c8406cd658e5b7dd06588fbf47fad3a132916271bb810e97ba6adc1538264736f6c634300080b0033",
  "immutableReferences": {},
  "source": "// SPDX-License-Identifier: MIT\npragma solidity >= 0.8.0;\nimport \"./Roles.sol\";\n\ncontract ClientRole {\n    event clientAdded(address indexed addr);\n    event clientRemoved(address indexed addr);\n    Roles.Role clients;\n\n    constructor() {\n        Roles.add(clients, msg.sender);\n        emit clientAdded(msg.sender);\n    }\n    \n    modifier onlyClient {\n        require(Roles.has(clients, msg.sender));\n        _;\n    }\n\n    function isClient(address account) public view returns (bool){\n        return Roles.has(clients, account);\n    }\n\n    function addClient(address account) public onlyClient {\n        _addClient(account);\n    }\n\n    function renounceConsumer() public {\n        _removeClient(msg.sender);\n    }\n\n    function _addClient(address account) internal {\n        Roles.add(clients, account);\n        emit clientAdded(account);\n    }\n\n    function _removeClient(address account) internal{\n        Roles.remove(clients, account);\n        emit clientRemoved(account);\n    }\n\n}",
  "sourcePath": "/home/tcdkzrz/Documents/Blockchain/Solidity/Projects/contracts/accesscontrol/ClientRole.sol",
  "compiler": {
    "name": "solc",
    "version": "0.8.11+commit.d7f03943.Emscripten.clang"
  },
  "schemaVersion": "3.4.1",
  "updatedAt": "2022-01-24T21:07:47.020Z",
  "networkType": "ethereum",
  "devdoc": {
    "kind": "dev",
    "methods": {},
    "version": 1
  },
  "userdoc": {
    "kind": "user",
    "methods": {},
    "version": 1
  }
}