{
  "contractName": "lapidaryRole",
  "abi": [
    {
      "inputs": [],
      "stateMutability": "nonpayable",
      "type": "constructor"
    },
    {
      "anonymous": false,
      "inputs": [
        {
          "indexed": true,
          "internalType": "address",
          "name": "addr",
          "type": "address"
        }
      ],
      "name": "lapidaryAdded",
      "type": "event"
    },
    {
      "anonymous": false,
      "inputs": [
        {
          "indexed": true,
          "internalType": "address",
          "name": "addr",
          "type": "address"
        }
      ],
      "name": "lapidaryRemoved",
      "type": "event"
    },
    {
      "inputs": [
        {
          "internalType": "address",
          "name": "account",
          "type": "address"
        }
      ],
      "name": "isLapidary",
      "outputs": [
        {
          "internalType": "bool",
          "name": "",
          "type": "bool"
        }
      ],
      "stateMutability": "view",
      "type": "function"
    },
    {
      "inputs": [
        {
          "internalType": "address",
          "name": "account",
          "type": "address"
        }
      ],
      "name": "addLapidary",
      "outputs": [],
      "stateMutability": "nonpayable",
      "type": "function"
    },
    {
      "inputs": [],
      "name": "renounceLapidary",
      "outputs": [],
      "stateMutability": "nonpayable",
      "type": "function"
    }
  ],
  "bytecode": "0x608060405234801561001057600080fd5b5061002660003361006e60201b6100db1760201c565b3373ffffffffffffffffffffffffffffffffffffffff167fb5ba297f8d65a3c4a76f86b55857b92a9214db49c45fe50e12570d391e4a416d60405160405180910390a26101b2565b600073ffffffffffffffffffffffffffffffffffffffff168173ffffffffffffffffffffffffffffffffffffffff1614156100a857600080fd5b6100b8828261012060201b60201c565b156100c257600080fd5b60018260000160008373ffffffffffffffffffffffffffffffffffffffff1673ffffffffffffffffffffffffffffffffffffffff16815260200190815260200160002060006101000a81548160ff0219169083151502179055505050565b60008073ffffffffffffffffffffffffffffffffffffffff168273ffffffffffffffffffffffffffffffffffffffff16141561015b57600080fd5b8260000160008373ffffffffffffffffffffffffffffffffffffffff1673ffffffffffffffffffffffffffffffffffffffff16815260200190815260200160002060009054906101000a900460ff16905092915050565b610462806101c16000396000f3fe608060405234801561001057600080fd5b50600436106100415760003560e01c806364eb1c1214610046578063c577d91e14610062578063e36f556d14610092575b600080fd5b610060600480360381019061005b91906103c9565b61009c565b005b61007c600480360381019061007791906103c9565b6100bc565b6040516100899190610411565b60405180910390f35b61009a6100d0565b005b6100a7600033610187565b6100b057600080fd5b6100b981610219565b50565b60006100c9600083610187565b9050919050565b6100d93361026a565b565b600073ffffffffffffffffffffffffffffffffffffffff168173ffffffffffffffffffffffffffffffffffffffff16141561011557600080fd5b61011f8282610187565b1561012957600080fd5b60018260000160008373ffffffffffffffffffffffffffffffffffffffff1673ffffffffffffffffffffffffffffffffffffffff16815260200190815260200160002060006101000a81548160ff0219169083151502179055505050565b60008073ffffffffffffffffffffffffffffffffffffffff168273ffffffffffffffffffffffffffffffffffffffff1614156101c257600080fd5b8260000160008373ffffffffffffffffffffffffffffffffffffffff1673ffffffffffffffffffffffffffffffffffffffff16815260200190815260200160002060009054906101000a900460ff16905092915050565b6102246000826100db565b8073ffffffffffffffffffffffffffffffffffffffff167fb5ba297f8d65a3c4a76f86b55857b92a9214db49c45fe50e12570d391e4a416d60405160405180910390a250565b6102756000826102bb565b8073ffffffffffffffffffffffffffffffffffffffff167f60cc1a51c40ed21f0cec408a2cb47893443aa3c912a9be8fe386e61e8706c8d960405160405180910390a250565b600073ffffffffffffffffffffffffffffffffffffffff168173ffffffffffffffffffffffffffffffffffffffff1614156102f557600080fd5b6102ff8282610187565b61030857600080fd5b60008260000160008373ffffffffffffffffffffffffffffffffffffffff1673ffffffffffffffffffffffffffffffffffffffff16815260200190815260200160002060006101000a81548160ff0219169083151502179055505050565b600080fd5b600073ffffffffffffffffffffffffffffffffffffffff82169050919050565b60006103968261036b565b9050919050565b6103a68161038b565b81146103b157600080fd5b50565b6000813590506103c38161039d565b92915050565b6000602082840312156103df576103de610366565b5b60006103ed848285016103b4565b91505092915050565b60008115159050919050565b61040b816103f6565b82525050565b60006020820190506104266000830184610402565b9291505056fea2646970667358221220dd80f3f22e6f3a39d4d4a73be956eb8dcd874983d1a13b88dec543c250f775bd64736f6c634300080b0033",
  "immutableReferences": {},
  "source": "// SPDX-License-Identifier: MIT\npragma solidity >= 0.8.0;\nimport \"./Roles.sol\";\n\ncontract lapidaryRole {\n    event lapidaryAdded(address indexed addr);\n    event lapidaryRemoved(address indexed addr);\n    Roles.Role lapidarys;\n\n    constructor() {\n        Roles.add(lapidarys, msg.sender);\n        emit lapidaryAdded(msg.sender);\n    }\n    \n    modifier onlyLapidary {\n        require(Roles.has(lapidarys, msg.sender));\n        _;\n    }\n\n    function isLapidary(address account) public view returns (bool){\n        return Roles.has(lapidarys, account);\n    }\n\n    function addLapidary(address account) public onlyLapidary {\n        _addLapidary(account);\n    }\n\n    function renounceLapidary() public {\n        _removeLapidary(msg.sender);\n    }\n\n    function _addLapidary(address account) internal {\n        Roles.add(lapidarys, account);\n        emit lapidaryAdded(account);\n    }\n\n    function _removeLapidary(address account) internal{\n        Roles.remove(lapidarys, account);\n        emit lapidaryRemoved(account);\n    }\n\n\n}",
  "sourcePath": "/home/tcdkzrz/Documents/Blockchain/Solidity/Projects/contracts/accesscontrol/LapidaryRole.sol",
  "compiler": {
    "name": "solc",
    "version": "0.8.11+commit.d7f03943.Emscripten.clang"
  },
  "schemaVersion": "3.4.1",
  "updatedAt": "2022-01-23T16:28:28.670Z",
  "devdoc": {
    "kind": "dev",
    "methods": {},
    "version": 1
  },
  "userdoc": {
    "kind": "user",
    "methods": {},
    "version": 1
  }
}