{
  "contractName": "merchantRole",
  "abi": [
    {
      "inputs": [],
      "stateMutability": "nonpayable",
      "type": "constructor"
    },
    {
      "anonymous": false,
      "inputs": [
        {
          "indexed": true,
          "internalType": "address",
          "name": "addr",
          "type": "address"
        }
      ],
      "name": "merchantAdded",
      "type": "event"
    },
    {
      "anonymous": false,
      "inputs": [
        {
          "indexed": true,
          "internalType": "address",
          "name": "addr",
          "type": "address"
        }
      ],
      "name": "merchantRemoved",
      "type": "event"
    },
    {
      "inputs": [
        {
          "internalType": "address",
          "name": "account",
          "type": "address"
        }
      ],
      "name": "isMerchant",
      "outputs": [
        {
          "internalType": "bool",
          "name": "",
          "type": "bool"
        }
      ],
      "stateMutability": "view",
      "type": "function"
    },
    {
      "inputs": [
        {
          "internalType": "address",
          "name": "account",
          "type": "address"
        }
      ],
      "name": "addMerchant",
      "outputs": [],
      "stateMutability": "nonpayable",
      "type": "function"
    },
    {
      "inputs": [],
      "name": "renounceMerchant",
      "outputs": [],
      "stateMutability": "nonpayable",
      "type": "function"
    }
  ],
  "bytecode": "0x608060405234801561001057600080fd5b5061002660003361006e60201b6100db1760201c565b3373ffffffffffffffffffffffffffffffffffffffff167f9c24eeb033ad3e85cd7a44241f1f095460380690814e3479480f928a958be9bd60405160405180910390a26101b2565b600073ffffffffffffffffffffffffffffffffffffffff168173ffffffffffffffffffffffffffffffffffffffff1614156100a857600080fd5b6100b8828261012060201b60201c565b156100c257600080fd5b60018260000160008373ffffffffffffffffffffffffffffffffffffffff1673ffffffffffffffffffffffffffffffffffffffff16815260200190815260200160002060006101000a81548160ff0219169083151502179055505050565b60008073ffffffffffffffffffffffffffffffffffffffff168273ffffffffffffffffffffffffffffffffffffffff16141561015b57600080fd5b8260000160008373ffffffffffffffffffffffffffffffffffffffff1673ffffffffffffffffffffffffffffffffffffffff16815260200190815260200160002060009054906101000a900460ff16905092915050565b610462806101c16000396000f3fe608060405234801561001057600080fd5b50600436106100415760003560e01c80631a2f71671461004657806331b1025114610076578063bf76c0ef14610080575b600080fd5b610060600480360381019061005b91906103c9565b61009c565b60405161006d9190610411565b60405180910390f35b61007e6100b0565b005b61009a600480360381019061009591906103c9565b6100bb565b005b60006100a9600083610187565b9050919050565b6100b933610219565b565b6100c6600033610187565b6100cf57600080fd5b6100d88161026a565b50565b600073ffffffffffffffffffffffffffffffffffffffff168173ffffffffffffffffffffffffffffffffffffffff16141561011557600080fd5b61011f8282610187565b1561012957600080fd5b60018260000160008373ffffffffffffffffffffffffffffffffffffffff1673ffffffffffffffffffffffffffffffffffffffff16815260200190815260200160002060006101000a81548160ff0219169083151502179055505050565b60008073ffffffffffffffffffffffffffffffffffffffff168273ffffffffffffffffffffffffffffffffffffffff1614156101c257600080fd5b8260000160008373ffffffffffffffffffffffffffffffffffffffff1673ffffffffffffffffffffffffffffffffffffffff16815260200190815260200160002060009054906101000a900460ff16905092915050565b6102246000826102bb565b8073ffffffffffffffffffffffffffffffffffffffff167f6957811ef5826b0e815d7169ecd0d9887860bfceb2a8c8f7a651b922ce15f4fb60405160405180910390a250565b6102756000826100db565b8073ffffffffffffffffffffffffffffffffffffffff167f9c24eeb033ad3e85cd7a44241f1f095460380690814e3479480f928a958be9bd60405160405180910390a250565b600073ffffffffffffffffffffffffffffffffffffffff168173ffffffffffffffffffffffffffffffffffffffff1614156102f557600080fd5b6102ff8282610187565b61030857600080fd5b60008260000160008373ffffffffffffffffffffffffffffffffffffffff1673ffffffffffffffffffffffffffffffffffffffff16815260200190815260200160002060006101000a81548160ff0219169083151502179055505050565b600080fd5b600073ffffffffffffffffffffffffffffffffffffffff82169050919050565b60006103968261036b565b9050919050565b6103a68161038b565b81146103b157600080fd5b50565b6000813590506103c38161039d565b92915050565b6000602082840312156103df576103de610366565b5b60006103ed848285016103b4565b91505092915050565b60008115159050919050565b61040b816103f6565b82525050565b60006020820190506104266000830184610402565b9291505056fea2646970667358221220c45098890918c1196b7518b80fd786a1ee892b2b506e8ccbced0fd9e51df8b2164736f6c634300080b0033",
  "immutableReferences": {},
  "source": "// SPDX-License-Identifier: MIT\npragma solidity >= 0.8.0;\nimport \"./Roles.sol\";\n\ncontract merchantRole {\n    event merchantAdded(address indexed addr);\n    event merchantRemoved(address indexed addr);\n    Roles.Role merchants;\n\n    constructor() {\n        Roles.add(merchants, msg.sender);\n        emit merchantAdded(msg.sender);\n    }\n    \n    modifier onlyMerchant {\n        require(Roles.has(merchants, msg.sender));\n        _;\n    }\n\n    function isMerchant(address account) public view returns (bool){\n        return Roles.has(merchants, account);\n    }\n\n    function addMerchant(address account) public onlyMerchant {\n        _addMerchant(account);\n    }\n\n    function renounceMerchant() public {\n        _removeMerchant(msg.sender);\n    }\n\n    function _addMerchant(address account) internal {\n        Roles.add(merchants, account);\n        emit merchantAdded(account);\n    }\n\n    function _removeMerchant(address account) internal{\n        Roles.remove(merchants, account);\n        emit merchantRemoved(account);\n    }\n\n}",
  "sourcePath": "/home/tcdkzrz/Documents/Blockchain/Solidity/Projects/contracts/accesscontrol/MerchantRole.sol",
  "compiler": {
    "name": "solc",
    "version": "0.8.11+commit.d7f03943.Emscripten.clang"
  },
  "schemaVersion": "3.4.1",
  "updatedAt": "2022-01-23T16:28:28.671Z",
  "devdoc": {
    "kind": "dev",
    "methods": {},
    "version": 1
  },
  "userdoc": {
    "kind": "user",
    "methods": {},
    "version": 1
  }
}