{
  "contractName": "MinerRole",
  "abi": [
    {
      "inputs": [],
      "stateMutability": "nonpayable",
      "type": "constructor"
    },
    {
      "anonymous": false,
      "inputs": [
        {
          "indexed": true,
          "internalType": "address",
          "name": "addr",
          "type": "address"
        }
      ],
      "name": "minerAdded",
      "type": "event"
    },
    {
      "anonymous": false,
      "inputs": [
        {
          "indexed": true,
          "internalType": "address",
          "name": "addr",
          "type": "address"
        }
      ],
      "name": "minerRemoved",
      "type": "event"
    },
    {
      "inputs": [
        {
          "internalType": "address",
          "name": "account",
          "type": "address"
        }
      ],
      "name": "isMiner",
      "outputs": [
        {
          "internalType": "bool",
          "name": "",
          "type": "bool"
        }
      ],
      "stateMutability": "view",
      "type": "function",
      "constant": true
    },
    {
      "inputs": [
        {
          "internalType": "address",
          "name": "account",
          "type": "address"
        }
      ],
      "name": "addMiner",
      "outputs": [],
      "stateMutability": "nonpayable",
      "type": "function"
    },
    {
      "inputs": [],
      "name": "renounceMiner",
      "outputs": [],
      "stateMutability": "nonpayable",
      "type": "function"
    }
  ],
  "bytecode": "0x608060405234801561001057600080fd5b5061002660003361006e60201b6100db1760201c565b3373ffffffffffffffffffffffffffffffffffffffff167fb5b0df39b444ec594c1a79cb9f43bfa3f32d92ec533a380810974d2c0e48f41860405160405180910390a26101b2565b600073ffffffffffffffffffffffffffffffffffffffff168173ffffffffffffffffffffffffffffffffffffffff1614156100a857600080fd5b6100b8828261012060201b60201c565b156100c257600080fd5b60018260000160008373ffffffffffffffffffffffffffffffffffffffff1673ffffffffffffffffffffffffffffffffffffffff16815260200190815260200160002060006101000a81548160ff0219169083151502179055505050565b60008073ffffffffffffffffffffffffffffffffffffffff168273ffffffffffffffffffffffffffffffffffffffff16141561015b57600080fd5b8260000160008373ffffffffffffffffffffffffffffffffffffffff1673ffffffffffffffffffffffffffffffffffffffff16815260200190815260200160002060009054906101000a900460ff16905092915050565b610462806101c16000396000f3fe608060405234801561001057600080fd5b50600436106100415760003560e01c8063701b70ac14610046578063ae46352a14610076578063f3982e5e14610080575b600080fd5b610060600480360381019061005b91906103c9565b61009c565b60405161006d9190610411565b60405180910390f35b61007e6100b0565b005b61009a600480360381019061009591906103c9565b6100bb565b005b60006100a9600083610187565b9050919050565b6100b933610219565b565b6100c6600033610187565b6100cf57600080fd5b6100d88161026a565b50565b600073ffffffffffffffffffffffffffffffffffffffff168173ffffffffffffffffffffffffffffffffffffffff16141561011557600080fd5b61011f8282610187565b1561012957600080fd5b60018260000160008373ffffffffffffffffffffffffffffffffffffffff1673ffffffffffffffffffffffffffffffffffffffff16815260200190815260200160002060006101000a81548160ff0219169083151502179055505050565b60008073ffffffffffffffffffffffffffffffffffffffff168273ffffffffffffffffffffffffffffffffffffffff1614156101c257600080fd5b8260000160008373ffffffffffffffffffffffffffffffffffffffff1673ffffffffffffffffffffffffffffffffffffffff16815260200190815260200160002060009054906101000a900460ff16905092915050565b6102246000826102bb565b8073ffffffffffffffffffffffffffffffffffffffff167fa08e06856dec39e7990cf2890402447eb198eed9b8f0edb2a5cbb52892cb97f960405160405180910390a250565b6102756000826100db565b8073ffffffffffffffffffffffffffffffffffffffff167fb5b0df39b444ec594c1a79cb9f43bfa3f32d92ec533a380810974d2c0e48f41860405160405180910390a250565b600073ffffffffffffffffffffffffffffffffffffffff168173ffffffffffffffffffffffffffffffffffffffff1614156102f557600080fd5b6102ff8282610187565b61030857600080fd5b60008260000160008373ffffffffffffffffffffffffffffffffffffffff1673ffffffffffffffffffffffffffffffffffffffff16815260200190815260200160002060006101000a81548160ff0219169083151502179055505050565b600080fd5b600073ffffffffffffffffffffffffffffffffffffffff82169050919050565b60006103968261036b565b9050919050565b6103a68161038b565b81146103b157600080fd5b50565b6000813590506103c38161039d565b92915050565b6000602082840312156103df576103de610366565b5b60006103ed848285016103b4565b91505092915050565b60008115159050919050565b61040b816103f6565b82525050565b60006020820190506104266000830184610402565b9291505056fea264697066735822122004b914112c16466aa54feaaf45c7e774dffa12a96236a2634ce82f13475de51364736f6c634300080b0033",
  "immutableReferences": {},
  "source": "// SPDX-License-Identifier: MIT\npragma solidity >= 0.8.0;\nimport \"./Roles.sol\";\n\ncontract MinerRole {\n    event minerAdded(address indexed addr);\n    event minerRemoved(address indexed addr);\n    Roles.Role miners;\n\n    constructor() {\n        Roles.add(miners, msg.sender);\n        emit minerAdded(msg.sender);\n    }\n    \n    modifier onlyMiner {\n        require(Roles.has(miners, msg.sender));\n        _;\n    }\n\n    function isMiner(address account) public view returns (bool){\n        return Roles.has(miners, account);\n    }\n\n    function addMiner(address account) public onlyMiner {\n        _addMiner(account);\n    }\n\n    function renounceMiner() public {\n        _removeMiner(msg.sender);\n    }\n\n    function _addMiner(address account) internal {\n        Roles.add(miners, account);\n        emit minerAdded(account);\n    }\n\n    function _removeMiner(address account) internal{\n        Roles.remove(miners, account);\n        emit minerRemoved(account);\n    }\n\n}",
  "sourcePath": "/home/tcdkzrz/Documents/Blockchain/Solidity/Projects/contracts/accesscontrol/MinerRole.sol",
  "compiler": {
    "name": "solc",
    "version": "0.8.11+commit.d7f03943.Emscripten.clang"
  },
  "schemaVersion": "3.4.1",
  "updatedAt": "2022-01-24T21:07:47.031Z",
  "networkType": "ethereum",
  "devdoc": {
    "kind": "dev",
    "methods": {},
    "version": 1
  },
  "userdoc": {
    "kind": "user",
    "methods": {},
    "version": 1
  }
}