{
  "contractName": "SupplyChain",
  "abi": [
    {
      "inputs": [],
      "stateMutability": "payable",
      "type": "constructor",
      "payable": true
    },
    {
      "anonymous": false,
      "inputs": [
        {
          "indexed": false,
          "internalType": "uint256",
          "name": "upc",
          "type": "uint256"
        }
      ],
      "name": "Faceted",
      "type": "event"
    },
    {
      "anonymous": false,
      "inputs": [
        {
          "indexed": false,
          "internalType": "uint256",
          "name": "upc",
          "type": "uint256"
        }
      ],
      "name": "ForSale",
      "type": "event"
    },
    {
      "anonymous": false,
      "inputs": [
        {
          "indexed": false,
          "internalType": "uint256",
          "name": "upc",
          "type": "uint256"
        }
      ],
      "name": "Graded",
      "type": "event"
    },
    {
      "anonymous": false,
      "inputs": [
        {
          "indexed": false,
          "internalType": "uint256",
          "name": "upc",
          "type": "uint256"
        }
      ],
      "name": "Mined",
      "type": "event"
    },
    {
      "anonymous": false,
      "inputs": [
        {
          "indexed": false,
          "internalType": "uint256",
          "name": "upc",
          "type": "uint256"
        }
      ],
      "name": "Sold",
      "type": "event"
    },
    {
      "anonymous": false,
      "inputs": [
        {
          "indexed": true,
          "internalType": "address",
          "name": "oldOwner",
          "type": "address"
        },
        {
          "indexed": true,
          "internalType": "address",
          "name": "newOwner",
          "type": "address"
        }
      ],
      "name": "TransferOwnership",
      "type": "event"
    },
    {
      "anonymous": false,
      "inputs": [
        {
          "indexed": true,
          "internalType": "address",
          "name": "addr",
          "type": "address"
        }
      ],
      "name": "clientAdded",
      "type": "event"
    },
    {
      "anonymous": false,
      "inputs": [
        {
          "indexed": true,
          "internalType": "address",
          "name": "addr",
          "type": "address"
        }
      ],
      "name": "clientRemoved",
      "type": "event"
    },
    {
      "anonymous": false,
      "inputs": [
        {
          "indexed": true,
          "internalType": "address",
          "name": "addr",
          "type": "address"
        }
      ],
      "name": "graderAdded",
      "type": "event"
    },
    {
      "anonymous": false,
      "inputs": [
        {
          "indexed": true,
          "internalType": "address",
          "name": "addr",
          "type": "address"
        }
      ],
      "name": "graderRemoved",
      "type": "event"
    },
    {
      "anonymous": false,
      "inputs": [
        {
          "indexed": true,
          "internalType": "address",
          "name": "addr",
          "type": "address"
        }
      ],
      "name": "lapidaryAdded",
      "type": "event"
    },
    {
      "anonymous": false,
      "inputs": [
        {
          "indexed": true,
          "internalType": "address",
          "name": "addr",
          "type": "address"
        }
      ],
      "name": "lapidaryRemoved",
      "type": "event"
    },
    {
      "anonymous": false,
      "inputs": [
        {
          "indexed": true,
          "internalType": "address",
          "name": "addr",
          "type": "address"
        }
      ],
      "name": "merchantAdded",
      "type": "event"
    },
    {
      "anonymous": false,
      "inputs": [
        {
          "indexed": true,
          "internalType": "address",
          "name": "addr",
          "type": "address"
        }
      ],
      "name": "merchantRemoved",
      "type": "event"
    },
    {
      "anonymous": false,
      "inputs": [
        {
          "indexed": true,
          "internalType": "address",
          "name": "addr",
          "type": "address"
        }
      ],
      "name": "minerAdded",
      "type": "event"
    },
    {
      "anonymous": false,
      "inputs": [
        {
          "indexed": true,
          "internalType": "address",
          "name": "addr",
          "type": "address"
        }
      ],
      "name": "minerRemoved",
      "type": "event"
    },
    {
      "inputs": [
        {
          "internalType": "address",
          "name": "account",
          "type": "address"
        }
      ],
      "name": "addClient",
      "outputs": [],
      "stateMutability": "nonpayable",
      "type": "function"
    },
    {
      "inputs": [
        {
          "internalType": "address",
          "name": "account",
          "type": "address"
        }
      ],
      "name": "addGrader",
      "outputs": [],
      "stateMutability": "nonpayable",
      "type": "function"
    },
    {
      "inputs": [
        {
          "internalType": "address",
          "name": "account",
          "type": "address"
        }
      ],
      "name": "addLapidary",
      "outputs": [],
      "stateMutability": "nonpayable",
      "type": "function"
    },
    {
      "inputs": [
        {
          "internalType": "address",
          "name": "account",
          "type": "address"
        }
      ],
      "name": "addMerchant",
      "outputs": [],
      "stateMutability": "nonpayable",
      "type": "function"
    },
    {
      "inputs": [
        {
          "internalType": "address",
          "name": "account",
          "type": "address"
        }
      ],
      "name": "addMiner",
      "outputs": [],
      "stateMutability": "nonpayable",
      "type": "function"
    },
    {
      "inputs": [
        {
          "internalType": "address",
          "name": "account",
          "type": "address"
        }
      ],
      "name": "isClient",
      "outputs": [
        {
          "internalType": "bool",
          "name": "",
          "type": "bool"
        }
      ],
      "stateMutability": "view",
      "type": "function",
      "constant": true
    },
    {
      "inputs": [
        {
          "internalType": "address",
          "name": "account",
          "type": "address"
        }
      ],
      "name": "isGrader",
      "outputs": [
        {
          "internalType": "bool",
          "name": "",
          "type": "bool"
        }
      ],
      "stateMutability": "view",
      "type": "function",
      "constant": true
    },
    {
      "inputs": [
        {
          "internalType": "address",
          "name": "account",
          "type": "address"
        }
      ],
      "name": "isLapidary",
      "outputs": [
        {
          "internalType": "bool",
          "name": "",
          "type": "bool"
        }
      ],
      "stateMutability": "view",
      "type": "function",
      "constant": true
    },
    {
      "inputs": [
        {
          "internalType": "address",
          "name": "account",
          "type": "address"
        }
      ],
      "name": "isMerchant",
      "outputs": [
        {
          "internalType": "bool",
          "name": "",
          "type": "bool"
        }
      ],
      "stateMutability": "view",
      "type": "function",
      "constant": true
    },
    {
      "inputs": [
        {
          "internalType": "address",
          "name": "account",
          "type": "address"
        }
      ],
      "name": "isMiner",
      "outputs": [
        {
          "internalType": "bool",
          "name": "",
          "type": "bool"
        }
      ],
      "stateMutability": "view",
      "type": "function",
      "constant": true
    },
    {
      "inputs": [],
      "name": "isOwner",
      "outputs": [
        {
          "internalType": "bool",
          "name": "",
          "type": "bool"
        }
      ],
      "stateMutability": "view",
      "type": "function",
      "constant": true
    },
    {
      "inputs": [],
      "name": "owner",
      "outputs": [
        {
          "internalType": "address",
          "name": "",
          "type": "address"
        }
      ],
      "stateMutability": "view",
      "type": "function",
      "constant": true
    },
    {
      "inputs": [],
      "name": "renounceConsumer",
      "outputs": [],
      "stateMutability": "nonpayable",
      "type": "function"
    },
    {
      "inputs": [],
      "name": "renounceGrader",
      "outputs": [],
      "stateMutability": "nonpayable",
      "type": "function"
    },
    {
      "inputs": [],
      "name": "renounceLapidary",
      "outputs": [],
      "stateMutability": "nonpayable",
      "type": "function"
    },
    {
      "inputs": [],
      "name": "renounceMerchant",
      "outputs": [],
      "stateMutability": "nonpayable",
      "type": "function"
    },
    {
      "inputs": [],
      "name": "renounceMiner",
      "outputs": [],
      "stateMutability": "nonpayable",
      "type": "function"
    },
    {
      "inputs": [],
      "name": "renounceOwnership",
      "outputs": [],
      "stateMutability": "nonpayable",
      "type": "function"
    },
    {
      "inputs": [
        {
          "internalType": "address",
          "name": "newOwner",
          "type": "address"
        }
      ],
      "name": "transfewrOwnership",
      "outputs": [],
      "stateMutability": "nonpayable",
      "type": "function"
    },
    {
      "inputs": [
        {
          "internalType": "string",
          "name": "_type",
          "type": "string"
        },
        {
          "internalType": "uint256",
          "name": "_weight",
          "type": "uint256"
        },
        {
          "internalType": "uint256",
          "name": "_price",
          "type": "uint256"
        },
        {
          "internalType": "string",
          "name": "_latitude",
          "type": "string"
        },
        {
          "internalType": "string",
          "name": "_longitude",
          "type": "string"
        }
      ],
      "name": "mineStone",
      "outputs": [],
      "stateMutability": "nonpayable",
      "type": "function"
    },
    {
      "inputs": [
        {
          "internalType": "uint256",
          "name": "__upc",
          "type": "uint256"
        },
        {
          "internalType": "string",
          "name": "_cut",
          "type": "string"
        },
        {
          "internalType": "uint256",
          "name": "cutWeight",
          "type": "uint256"
        }
      ],
      "name": "facetStone",
      "outputs": [],
      "stateMutability": "nonpayable",
      "type": "function"
    },
    {
      "inputs": [
        {
          "internalType": "uint256",
          "name": "__upc",
          "type": "uint256"
        },
        {
          "internalType": "string",
          "name": "_grade",
          "type": "string"
        }
      ],
      "name": "gradeStone",
      "outputs": [],
      "stateMutability": "nonpayable",
      "type": "function"
    },
    {
      "inputs": [
        {
          "internalType": "uint256",
          "name": "__upc",
          "type": "uint256"
        },
        {
          "internalType": "uint256",
          "name": "_price",
          "type": "uint256"
        }
      ],
      "name": "sellStone",
      "outputs": [],
      "stateMutability": "nonpayable",
      "type": "function"
    },
    {
      "inputs": [
        {
          "internalType": "uint256",
          "name": "__upc",
          "type": "uint256"
        }
      ],
      "name": "buyStone",
      "outputs": [],
      "stateMutability": "payable",
      "type": "function",
      "payable": true
    },
    {
      "inputs": [
        {
          "internalType": "uint256",
          "name": "__upc",
          "type": "uint256"
        }
      ],
      "name": "fetchItemBuffer1",
      "outputs": [
        {
          "internalType": "uint256",
          "name": "sku",
          "type": "uint256"
        },
        {
          "internalType": "enum SupplyChain.State",
          "name": "state",
          "type": "uint8"
        },
        {
          "internalType": "string",
          "name": "stoneType",
          "type": "string"
        },
        {
          "internalType": "string",
          "name": "grade",
          "type": "string"
        },
        {
          "internalType": "string",
          "name": "cut",
          "type": "string"
        },
        {
          "internalType": "uint256",
          "name": "weight",
          "type": "uint256"
        },
        {
          "internalType": "address",
          "name": "ownerId",
          "type": "address"
        },
        {
          "internalType": "address",
          "name": "minerId",
          "type": "address"
        }
      ],
      "stateMutability": "view",
      "type": "function",
      "constant": true
    },
    {
      "inputs": [
        {
          "internalType": "uint256",
          "name": "__upc",
          "type": "uint256"
        }
      ],
      "name": "fetchItemBuffer2",
      "outputs": [
        {
          "internalType": "address",
          "name": "graderId",
          "type": "address"
        },
        {
          "internalType": "address",
          "name": "lapidaryId",
          "type": "address"
        },
        {
          "internalType": "string",
          "name": "mineLatitude",
          "type": "string"
        },
        {
          "internalType": "string",
          "name": "mineLongitude",
          "type": "string"
        },
        {
          "internalType": "address",
          "name": "merchantId",
          "type": "address"
        },
        {
          "internalType": "address",
          "name": "clientId",
          "type": "address"
        },
        {
          "internalType": "uint256",
          "name": "price",
          "type": "uint256"
        }
      ],
      "stateMutability": "view",
      "type": "function",
      "constant": true
    }
  ],
  "bytecode": "0x6080604052336000806101000a81548173ffffffffffffffffffffffffffffffffffffffff021916908373ffffffffffffffffffffffffffffffffffffffff16021790555060008054906101000a900473ffffffffffffffffffffffffffffffffffffffff1673ffffffffffffffffffffffffffffffffffffffff16600073ffffffffffffffffffffffffffffffffffffffff167f5c486528ec3e3f0ea91181cff8116f02bfa350e03b8b6f12e00765adbb5af85c60405160405180910390a3620000d76001336200029c60201b62003dde1760201c565b3373ffffffffffffffffffffffffffffffffffffffff167fb5b0df39b444ec594c1a79cb9f43bfa3f32d92ec533a380810974d2c0e48f41860405160405180910390a2620001326002336200029c60201b62003dde1760201c565b3373ffffffffffffffffffffffffffffffffffffffff167f93c7c95ea36a2c6177ad40fd83d25ee462fdcb36b8534396eae86b70c655cc1160405160405180910390a26200018d6003336200029c60201b62003dde1760201c565b3373ffffffffffffffffffffffffffffffffffffffff167f9c24eeb033ad3e85cd7a44241f1f095460380690814e3479480f928a958be9bd60405160405180910390a2620001e86004336200029c60201b62003dde1760201c565b3373ffffffffffffffffffffffffffffffffffffffff167fb5ba297f8d65a3c4a76f86b55857b92a9214db49c45fe50e12570d391e4a416d60405160405180910390a2620002436005336200029c60201b62003dde1760201c565b3373ffffffffffffffffffffffffffffffffffffffff167ffcd36702cdc849a0f2af09a25d9d3ef48d56aa56cac2968d1357a50831274ad760405160405180910390a260016007819055506001600681905550620003e5565b600073ffffffffffffffffffffffffffffffffffffffff168173ffffffffffffffffffffffffffffffffffffffff161415620002d757600080fd5b620002e982826200035260201b60201c565b15620002f457600080fd5b60018260000160008373ffffffffffffffffffffffffffffffffffffffff1673ffffffffffffffffffffffffffffffffffffffff16815260200190815260200160002060006101000a81548160ff0219169083151502179055505050565b60008073ffffffffffffffffffffffffffffffffffffffff168273ffffffffffffffffffffffffffffffffffffffff1614156200038e57600080fd5b8260000160008373ffffffffffffffffffffffffffffffffffffffff1673ffffffffffffffffffffffffffffffffffffffff16815260200190815260200160002060009054906101000a900460ff16905092915050565b614e6480620003f56000396000f3fe6080604052600436106101815760003560e01c80638f32d59b116100d1578063b3a4978b1161008a578063cf8b480a11610064578063cf8b480a14610542578063e36f556d1461056b578063e961185414610582578063f3982e5e146105ab57610181565b8063b3a4978b146104b3578063bf76c0ef146104dc578063c577d91e1461050557610181565b80638f32d59b146103c457806393999a21146103ef5780639902402b14610406578063a1bfe1391461042f578063ae46352a14610473578063b1d9b8d61461048a57610181565b806364eb1c121161013e578063774985a811610118578063774985a81461031757806384b7964f146103335780638bab7dc4146103705780638da5cb5b1461039957610181565b806364eb1c121461029a578063701b70ac146102c3578063715018a61461030057610181565b806309dbdf16146101865780631a2f7167146101c3578063307bd5f31461020057806331b102511461024357806343928cfd1461025a57806361e6982d14610283575b600080fd5b34801561019257600080fd5b506101ad60048036038101906101a89190614646565b6105d4565b6040516101ba919061468e565b60405180910390f35b3480156101cf57600080fd5b506101ea60048036038101906101e59190614646565b6105e8565b6040516101f7919061468e565b60405180910390f35b34801561020c57600080fd5b50610227600480360381019061022291906146df565b6105fc565b60405161023a97969594939291906147c3565b60405180910390f35b34801561024f57600080fd5b50610258610bae565b005b34801561026657600080fd5b50610281600480360381019061027c9190614646565b610bb9565b005b34801561028f57600080fd5b50610298610bd9565b005b3480156102a657600080fd5b506102c160048036038101906102bc9190614646565b610be4565b005b3480156102cf57600080fd5b506102ea60048036038101906102e59190614646565b610c04565b6040516102f7919061468e565b60405180910390f35b34801561030c57600080fd5b50610315610c18565b005b610331600480360381019061032c91906146df565b610ce7565b005b34801561033f57600080fd5b5061035a60048036038101906103559190614646565b61171f565b604051610367919061468e565b60405180910390f35b34801561037c57600080fd5b5061039760048036038101906103929190614975565b611733565b005b3480156103a557600080fd5b506103ae612066565b6040516103bb91906149d1565b60405180910390f35b3480156103d057600080fd5b506103d961208f565b6040516103e6919061468e565b60405180910390f35b3480156103fb57600080fd5b506104046120e6565b005b34801561041257600080fd5b5061042d600480360381019061042891906149ec565b6120f1565b005b34801561043b57600080fd5b50610456600480360381019061045191906146df565b612a26565b60405161046a989796959493929190614aa3565b60405180910390f35b34801561047f57600080fd5b50610488612fdb565b005b34801561049657600080fd5b506104b160048036038101906104ac9190614646565b612fe6565b005b3480156104bf57600080fd5b506104da60048036038101906104d59190614b36565b613003565b005b3480156104e857600080fd5b5061050360048036038101906104fe9190614646565b6133fc565b005b34801561051157600080fd5b5061052c60048036038101906105279190614646565b61341c565b604051610539919061468e565b60405180910390f35b34801561054e57600080fd5b5061056960048036038101906105649190614646565b613430565b005b34801561057757600080fd5b50610580613450565b005b34801561058e57600080fd5b506105a960048036038101906105a49190614c05565b61345b565b005b3480156105b757600080fd5b506105d260048036038101906105cd9190614646565b613dbe565b005b60006105e1600283613e8a565b9050919050565b60006105f5600383613e8a565b9050919050565b600080606080600080600080600860008a815260200190815260200160002060405180610200016040529081600082015481526020016001820160009054906101000a900460ff16600481111561065657610655614a2c565b5b600481111561066857610667614a2c565b5b815260200160028201805461067c90614ca3565b80601f01602080910402602001604051908101604052809291908181526020018280546106a890614ca3565b80156106f55780601f106106ca576101008083540402835291602001916106f5565b820191906000526020600020905b8154815290600101906020018083116106d857829003601f168201915b5050505050815260200160038201805461070e90614ca3565b80601f016020809104026020016040519081016040528092919081815260200182805461073a90614ca3565b80156107875780601f1061075c57610100808354040283529160200191610787565b820191906000526020600020905b81548152906001019060200180831161076a57829003601f168201915b505050505081526020016004820180546107a090614ca3565b80601f01602080910402602001604051908101604052809291908181526020018280546107cc90614ca3565b80156108195780601f106107ee57610100808354040283529160200191610819565b820191906000526020600020905b8154815290600101906020018083116107fc57829003601f168201915b5050505050815260200160058201548152602001600682015481526020016007820160009054906101000a900473ffffffffffffffffffffffffffffffffffffffff1673ffffffffffffffffffffffffffffffffffffffff1673ffffffffffffffffffffffffffffffffffffffff1681526020016008820160009054906101000a900473ffffffffffffffffffffffffffffffffffffffff1673ffffffffffffffffffffffffffffffffffffffff1673ffffffffffffffffffffffffffffffffffffffff1681526020016009820160009054906101000a900473ffffffffffffffffffffffffffffffffffffffff1673ffffffffffffffffffffffffffffffffffffffff1673ffffffffffffffffffffffffffffffffffffffff168152602001600a820160009054906101000a900473ffffffffffffffffffffffffffffffffffffffff1673ffffffffffffffffffffffffffffffffffffffff1673ffffffffffffffffffffffffffffffffffffffff168152602001600b8201805461099e90614ca3565b80601f01602080910402602001604051908101604052809291908181526020018280546109ca90614ca3565b8015610a175780601f106109ec57610100808354040283529160200191610a17565b820191906000526020600020905b8154815290600101906020018083116109fa57829003601f168201915b50505050508152602001600c82018054610a3090614ca3565b80601f0160208091040260200160405190810160405280929190818152602001828054610a5c90614ca3565b8015610aa95780601f10610a7e57610100808354040283529160200191610aa9565b820191906000526020600020905b815481529060010190602001808311610a8c57829003601f168201915b50505050508152602001600d820160009054906101000a900473ffffffffffffffffffffffffffffffffffffffff1673ffffffffffffffffffffffffffffffffffffffff1673ffffffffffffffffffffffffffffffffffffffff168152602001600e820160009054906101000a900473ffffffffffffffffffffffffffffffffffffffff1673ffffffffffffffffffffffffffffffffffffffff1673ffffffffffffffffffffffffffffffffffffffff168152602001600f820154815250509050806101200151816101400151826101600151836101800151846101a00151856101c00151866101e00151975097509750975097509750975050919395979092949650565b610bb733613f1c565b565b610bc4600533613e8a565b610bcd57600080fd5b610bd681613f6d565b50565b610be233613fbe565b565b610bef600433613e8a565b610bf857600080fd5b610c018161400f565b50565b6000610c11600183613e8a565b9050919050565b610c2061208f565b610c2957600080fd5b600073ffffffffffffffffffffffffffffffffffffffff1660008054906101000a900473ffffffffffffffffffffffffffffffffffffffff1673ffffffffffffffffffffffffffffffffffffffff167f5c486528ec3e3f0ea91181cff8116f02bfa350e03b8b6f12e00765adbb5af85c60405160405180910390a360008060006101000a81548173ffffffffffffffffffffffffffffffffffffffff021916908373ffffffffffffffffffffffffffffffffffffffff160217905550565b8060036004811115610cfc57610cfb614a2c565b5b6008600083815260200190815260200160002060010160009054906101000a900460ff166004811115610d3257610d31614a2c565b5b14610d3c57600080fd5b60086000838152602001908152602001600020600f015480341015610d6057600080fd5b82610d6c600533613e8a565b610d7557600080fd5b60006008600086815260200190815260200160002060405180610200016040529081600082015481526020016001820160009054906101000a900460ff166004811115610dc557610dc4614a2c565b5b6004811115610dd757610dd6614a2c565b5b8152602001600282018054610deb90614ca3565b80601f0160208091040260200160405190810160405280929190818152602001828054610e1790614ca3565b8015610e645780601f10610e3957610100808354040283529160200191610e64565b820191906000526020600020905b815481529060010190602001808311610e4757829003601f168201915b50505050508152602001600382018054610e7d90614ca3565b80601f0160208091040260200160405190810160405280929190818152602001828054610ea990614ca3565b8015610ef65780601f10610ecb57610100808354040283529160200191610ef6565b820191906000526020600020905b815481529060010190602001808311610ed957829003601f168201915b50505050508152602001600482018054610f0f90614ca3565b80601f0160208091040260200160405190810160405280929190818152602001828054610f3b90614ca3565b8015610f885780601f10610f5d57610100808354040283529160200191610f88565b820191906000526020600020905b815481529060010190602001808311610f6b57829003601f168201915b5050505050815260200160058201548152602001600682015481526020016007820160009054906101000a900473ffffffffffffffffffffffffffffffffffffffff1673ffffffffffffffffffffffffffffffffffffffff1673ffffffffffffffffffffffffffffffffffffffff1681526020016008820160009054906101000a900473ffffffffffffffffffffffffffffffffffffffff1673ffffffffffffffffffffffffffffffffffffffff1673ffffffffffffffffffffffffffffffffffffffff1681526020016009820160009054906101000a900473ffffffffffffffffffffffffffffffffffffffff1673ffffffffffffffffffffffffffffffffffffffff1673ffffffffffffffffffffffffffffffffffffffff168152602001600a820160009054906101000a900473ffffffffffffffffffffffffffffffffffffffff1673ffffffffffffffffffffffffffffffffffffffff1673ffffffffffffffffffffffffffffffffffffffff168152602001600b8201805461110d90614ca3565b80601f016020809104026020016040519081016040528092919081815260200182805461113990614ca3565b80156111865780601f1061115b57610100808354040283529160200191611186565b820191906000526020600020905b81548152906001019060200180831161116957829003601f168201915b50505050508152602001600c8201805461119f90614ca3565b80601f01602080910402602001604051908101604052809291908181526020018280546111cb90614ca3565b80156112185780601f106111ed57610100808354040283529160200191611218565b820191906000526020600020905b8154815290600101906020018083116111fb57829003601f168201915b50505050508152602001600d820160009054906101000a900473ffffffffffffffffffffffffffffffffffffffff1673ffffffffffffffffffffffffffffffffffffffff1673ffffffffffffffffffffffffffffffffffffffff168152602001600e820160009054906101000a900473ffffffffffffffffffffffffffffffffffffffff1673ffffffffffffffffffffffffffffffffffffffff1673ffffffffffffffffffffffffffffffffffffffff168152602001600f820154815250509050338160e0019073ffffffffffffffffffffffffffffffffffffffff16908173ffffffffffffffffffffffffffffffffffffffff168152505060048160200190600481111561132a57611329614a2c565b5b9081600481111561133e5761133d614a2c565b5b8152505033816101c0019073ffffffffffffffffffffffffffffffffffffffff16908173ffffffffffffffffffffffffffffffffffffffff168152505080600860008360c0015181526020019081526020016000206000820151816000015560208201518160010160006101000a81548160ff021916908360048111156113c8576113c7614a2c565b5b021790555060408201518160020190805190602001906113e992919061441e565b50606082015181600301908051906020019061140692919061441e565b50608082015181600401908051906020019061142392919061441e565b5060a0820151816005015560c0820151816006015560e08201518160070160006101000a81548173ffffffffffffffffffffffffffffffffffffffff021916908373ffffffffffffffffffffffffffffffffffffffff1602179055506101008201518160080160006101000a81548173ffffffffffffffffffffffffffffffffffffffff021916908373ffffffffffffffffffffffffffffffffffffffff1602179055506101208201518160090160006101000a81548173ffffffffffffffffffffffffffffffffffffffff021916908373ffffffffffffffffffffffffffffffffffffffff16021790555061014082015181600a0160006101000a81548173ffffffffffffffffffffffffffffffffffffffff021916908373ffffffffffffffffffffffffffffffffffffffff16021790555061016082015181600b01908051906020019061157492919061441e565b5061018082015181600c01908051906020019061159292919061441e565b506101a082015181600d0160006101000a81548173ffffffffffffffffffffffffffffffffffffffff021916908373ffffffffffffffffffffffffffffffffffffffff1602179055506101c082015181600e0160006101000a81548173ffffffffffffffffffffffffffffffffffffffff021916908373ffffffffffffffffffffffffffffffffffffffff1602179055506101e082015181600f01559050507f92f64ca637d023f354075a4be751b169c1a8a9ccb6d33cdd0cb3520543995727856040516116609190614cd5565b60405180910390a150600060086000838152602001908152602001600020600f01549050600081346116929190614d1f565b9050600060086000858152602001908152602001600020600e0160009054906101000a900473ffffffffffffffffffffffffffffffffffffffff1690508073ffffffffffffffffffffffffffffffffffffffff166108fc839081150290604051600060405180830381858888f19350505050158015611715573d6000803e3d6000fd5b5050505050505050565b600061172c600583613e8a565b9050919050565b61173e600233613e8a565b61174757600080fd5b816001600481111561175c5761175b614a2c565b5b6008600083815260200190815260200160002060010160009054906101000a900460ff16600481111561179257611791614a2c565b5b1461179c57600080fd5b60006008600085815260200190815260200160002060405180610200016040529081600082015481526020016001820160009054906101000a900460ff1660048111156117ec576117eb614a2c565b5b60048111156117fe576117fd614a2c565b5b815260200160028201805461181290614ca3565b80601f016020809104026020016040519081016040528092919081815260200182805461183e90614ca3565b801561188b5780601f106118605761010080835404028352916020019161188b565b820191906000526020600020905b81548152906001019060200180831161186e57829003601f168201915b505050505081526020016003820180546118a490614ca3565b80601f01602080910402602001604051908101604052809291908181526020018280546118d090614ca3565b801561191d5780601f106118f25761010080835404028352916020019161191d565b820191906000526020600020905b81548152906001019060200180831161190057829003601f168201915b5050505050815260200160048201805461193690614ca3565b80601f016020809104026020016040519081016040528092919081815260200182805461196290614ca3565b80156119af5780601f10611984576101008083540402835291602001916119af565b820191906000526020600020905b81548152906001019060200180831161199257829003601f168201915b5050505050815260200160058201548152602001600682015481526020016007820160009054906101000a900473ffffffffffffffffffffffffffffffffffffffff1673ffffffffffffffffffffffffffffffffffffffff1673ffffffffffffffffffffffffffffffffffffffff1681526020016008820160009054906101000a900473ffffffffffffffffffffffffffffffffffffffff1673ffffffffffffffffffffffffffffffffffffffff1673ffffffffffffffffffffffffffffffffffffffff1681526020016009820160009054906101000a900473ffffffffffffffffffffffffffffffffffffffff1673ffffffffffffffffffffffffffffffffffffffff1673ffffffffffffffffffffffffffffffffffffffff168152602001600a820160009054906101000a900473ffffffffffffffffffffffffffffffffffffffff1673ffffffffffffffffffffffffffffffffffffffff1673ffffffffffffffffffffffffffffffffffffffff168152602001600b82018054611b3490614ca3565b80601f0160208091040260200160405190810160405280929190818152602001828054611b6090614ca3565b8015611bad5780601f10611b8257610100808354040283529160200191611bad565b820191906000526020600020905b815481529060010190602001808311611b9057829003601f168201915b50505050508152602001600c82018054611bc690614ca3565b80601f0160208091040260200160405190810160405280929190818152602001828054611bf290614ca3565b8015611c3f5780601f10611c1457610100808354040283529160200191611c3f565b820191906000526020600020905b815481529060010190602001808311611c2257829003601f168201915b50505050508152602001600d820160009054906101000a900473ffffffffffffffffffffffffffffffffffffffff1673ffffffffffffffffffffffffffffffffffffffff1673ffffffffffffffffffffffffffffffffffffffff168152602001600e820160009054906101000a900473ffffffffffffffffffffffffffffffffffffffff1673ffffffffffffffffffffffffffffffffffffffff1673ffffffffffffffffffffffffffffffffffffffff168152602001600f820154815250509050828160600181905250600281602001906004811115611d2257611d21614a2c565b5b90816004811115611d3657611d35614a2c565b5b815250503381610120019073ffffffffffffffffffffffffffffffffffffffff16908173ffffffffffffffffffffffffffffffffffffffff168152505080600860008360c0015181526020019081526020016000206000820151816000015560208201518160010160006101000a81548160ff02191690836004811115611dc057611dbf614a2c565b5b02179055506040820151816002019080519060200190611de192919061441e565b506060820151816003019080519060200190611dfe92919061441e565b506080820151816004019080519060200190611e1b92919061441e565b5060a0820151816005015560c0820151816006015560e08201518160070160006101000a81548173ffffffffffffffffffffffffffffffffffffffff021916908373ffffffffffffffffffffffffffffffffffffffff1602179055506101008201518160080160006101000a81548173ffffffffffffffffffffffffffffffffffffffff021916908373ffffffffffffffffffffffffffffffffffffffff1602179055506101208201518160090160006101000a81548173ffffffffffffffffffffffffffffffffffffffff021916908373ffffffffffffffffffffffffffffffffffffffff16021790555061014082015181600a0160006101000a81548173ffffffffffffffffffffffffffffffffffffffff021916908373ffffffffffffffffffffffffffffffffffffffff16021790555061016082015181600b019080519060200190611f6c92919061441e565b5061018082015181600c019080519060200190611f8a92919061441e565b506101a082015181600d0160006101000a81548173ffffffffffffffffffffffffffffffffffffffff021916908373ffffffffffffffffffffffffffffffffffffffff1602179055506101c082015181600e0160006101000a81548173ffffffffffffffffffffffffffffffffffffffff021916908373ffffffffffffffffffffffffffffffffffffffff1602179055506101e082015181600f01559050507f334e0508341be80017f4b9a9e679d8a8a8d4f2503f6b6176febc475a38bbdd83846040516120589190614cd5565b60405180910390a150505050565b60008060009054906101000a900473ffffffffffffffffffffffffffffffffffffffff16905090565b60008060009054906101000a900473ffffffffffffffffffffffffffffffffffffffff1673ffffffffffffffffffffffffffffffffffffffff163373ffffffffffffffffffffffffffffffffffffffff1614905090565b6120ef33614060565b565b6120fc600333613e8a565b61210557600080fd5b816002600481111561211a57612119614a2c565b5b6008600083815260200190815260200160002060010160009054906101000a900460ff1660048111156121505761214f614a2c565b5b1461215a57600080fd5b60006008600085815260200190815260200160002060405180610200016040529081600082015481526020016001820160009054906101000a900460ff1660048111156121aa576121a9614a2c565b5b60048111156121bc576121bb614a2c565b5b81526020016002820180546121d090614ca3565b80601f01602080910402602001604051908101604052809291908181526020018280546121fc90614ca3565b80156122495780601f1061221e57610100808354040283529160200191612249565b820191906000526020600020905b81548152906001019060200180831161222c57829003601f168201915b5050505050815260200160038201805461226290614ca3565b80601f016020809104026020016040519081016040528092919081815260200182805461228e90614ca3565b80156122db5780601f106122b0576101008083540402835291602001916122db565b820191906000526020600020905b8154815290600101906020018083116122be57829003601f168201915b505050505081526020016004820180546122f490614ca3565b80601f016020809104026020016040519081016040528092919081815260200182805461232090614ca3565b801561236d5780601f106123425761010080835404028352916020019161236d565b820191906000526020600020905b81548152906001019060200180831161235057829003601f168201915b5050505050815260200160058201548152602001600682015481526020016007820160009054906101000a900473ffffffffffffffffffffffffffffffffffffffff1673ffffffffffffffffffffffffffffffffffffffff1673ffffffffffffffffffffffffffffffffffffffff1681526020016008820160009054906101000a900473ffffffffffffffffffffffffffffffffffffffff1673ffffffffffffffffffffffffffffffffffffffff1673ffffffffffffffffffffffffffffffffffffffff1681526020016009820160009054906101000a900473ffffffffffffffffffffffffffffffffffffffff1673ffffffffffffffffffffffffffffffffffffffff1673ffffffffffffffffffffffffffffffffffffffff168152602001600a820160009054906101000a900473ffffffffffffffffffffffffffffffffffffffff1673ffffffffffffffffffffffffffffffffffffffff1673ffffffffffffffffffffffffffffffffffffffff168152602001600b820180546124f290614ca3565b80601f016020809104026020016040519081016040528092919081815260200182805461251e90614ca3565b801561256b5780601f106125405761010080835404028352916020019161256b565b820191906000526020600020905b81548152906001019060200180831161254e57829003601f168201915b50505050508152602001600c8201805461258490614ca3565b80601f01602080910402602001604051908101604052809291908181526020018280546125b090614ca3565b80156125fd5780601f106125d2576101008083540402835291602001916125fd565b820191906000526020600020905b8154815290600101906020018083116125e057829003601f168201915b50505050508152602001600d820160009054906101000a900473ffffffffffffffffffffffffffffffffffffffff1673ffffffffffffffffffffffffffffffffffffffff1673ffffffffffffffffffffffffffffffffffffffff168152602001600e820160009054906101000a900473ffffffffffffffffffffffffffffffffffffffff1673ffffffffffffffffffffffffffffffffffffffff1673ffffffffffffffffffffffffffffffffffffffff168152602001600f82015481525050905082816101e00181815250506003816020019060048111156126e2576126e1614a2c565b5b908160048111156126f6576126f5614a2c565b5b8152505033816101a0019073ffffffffffffffffffffffffffffffffffffffff16908173ffffffffffffffffffffffffffffffffffffffff168152505080600860008360c0015181526020019081526020016000206000820151816000015560208201518160010160006101000a81548160ff021916908360048111156127805761277f614a2c565b5b021790555060408201518160020190805190602001906127a192919061441e565b5060608201518160030190805190602001906127be92919061441e565b5060808201518160040190805190602001906127db92919061441e565b5060a0820151816005015560c0820151816006015560e08201518160070160006101000a81548173ffffffffffffffffffffffffffffffffffffffff021916908373ffffffffffffffffffffffffffffffffffffffff1602179055506101008201518160080160006101000a81548173ffffffffffffffffffffffffffffffffffffffff021916908373ffffffffffffffffffffffffffffffffffffffff1602179055506101208201518160090160006101000a81548173ffffffffffffffffffffffffffffffffffffffff021916908373ffffffffffffffffffffffffffffffffffffffff16021790555061014082015181600a0160006101000a81548173ffffffffffffffffffffffffffffffffffffffff021916908373ffffffffffffffffffffffffffffffffffffffff16021790555061016082015181600b01908051906020019061292c92919061441e565b5061018082015181600c01908051906020019061294a92919061441e565b506101a082015181600d0160006101000a81548173ffffffffffffffffffffffffffffffffffffffff021916908373ffffffffffffffffffffffffffffffffffffffff1602179055506101c082015181600e0160006101000a81548173ffffffffffffffffffffffffffffffffffffffff021916908373ffffffffffffffffffffffffffffffffffffffff1602179055506101e082015181600f01559050507fa96ae0fc3224ebd79eebfe54bd130cc9cb94416cddd1f2386115e00b7253246884604051612a189190614cd5565b60405180910390a150505050565b6000806060806060600080600080600860008b815260200190815260200160002060405180610200016040529081600082015481526020016001820160009054906101000a900460ff166004811115612a8257612a81614a2c565b5b6004811115612a9457612a93614a2c565b5b8152602001600282018054612aa890614ca3565b80601f0160208091040260200160405190810160405280929190818152602001828054612ad490614ca3565b8015612b215780601f10612af657610100808354040283529160200191612b21565b820191906000526020600020905b815481529060010190602001808311612b0457829003601f168201915b50505050508152602001600382018054612b3a90614ca3565b80601f0160208091040260200160405190810160405280929190818152602001828054612b6690614ca3565b8015612bb35780601f10612b8857610100808354040283529160200191612bb3565b820191906000526020600020905b815481529060010190602001808311612b9657829003601f168201915b50505050508152602001600482018054612bcc90614ca3565b80601f0160208091040260200160405190810160405280929190818152602001828054612bf890614ca3565b8015612c455780601f10612c1a57610100808354040283529160200191612c45565b820191906000526020600020905b815481529060010190602001808311612c2857829003601f168201915b5050505050815260200160058201548152602001600682015481526020016007820160009054906101000a900473ffffffffffffffffffffffffffffffffffffffff1673ffffffffffffffffffffffffffffffffffffffff1673ffffffffffffffffffffffffffffffffffffffff1681526020016008820160009054906101000a900473ffffffffffffffffffffffffffffffffffffffff1673ffffffffffffffffffffffffffffffffffffffff1673ffffffffffffffffffffffffffffffffffffffff1681526020016009820160009054906101000a900473ffffffffffffffffffffffffffffffffffffffff1673ffffffffffffffffffffffffffffffffffffffff1673ffffffffffffffffffffffffffffffffffffffff168152602001600a820160009054906101000a900473ffffffffffffffffffffffffffffffffffffffff1673ffffffffffffffffffffffffffffffffffffffff1673ffffffffffffffffffffffffffffffffffffffff168152602001600b82018054612dca90614ca3565b80601f0160208091040260200160405190810160405280929190818152602001828054612df690614ca3565b8015612e435780601f10612e1857610100808354040283529160200191612e43565b820191906000526020600020905b815481529060010190602001808311612e2657829003601f168201915b50505050508152602001600c82018054612e5c90614ca3565b80601f0160208091040260200160405190810160405280929190818152602001828054612e8890614ca3565b8015612ed55780601f10612eaa57610100808354040283529160200191612ed5565b820191906000526020600020905b815481529060010190602001808311612eb857829003601f168201915b50505050508152602001600d820160009054906101000a900473ffffffffffffffffffffffffffffffffffffffff1673ffffffffffffffffffffffffffffffffffffffff1673ffffffffffffffffffffffffffffffffffffffff168152602001600e820160009054906101000a900473ffffffffffffffffffffffffffffffffffffffff1673ffffffffffffffffffffffffffffffffffffffff1673ffffffffffffffffffffffffffffffffffffffff168152602001600f820154815250509050806000015181602001518260400151836060015184608001518560a001518660e001518761010001519850985098509850985098509850985050919395975091939597565b612fe4336140b1565b565b612fee61208f565b612ff757600080fd5b61300081614102565b50565b61300e600133613e8a565b61301757600080fd5b61301f6144a4565b85816040018190525060008160200190600481111561304157613040614a2c565b5b9081600481111561305557613054614a2c565b5b81525050848160a001818152505083816101e00181815250506007548160000181815250506007600081548092919061308d90614d53565b91905055506006548160c0018181525050600660008154809291906130b190614d53565b91905055503381610100019073ffffffffffffffffffffffffffffffffffffffff16908173ffffffffffffffffffffffffffffffffffffffff1681525050828161016001819052508181610180018190525080600860008360c0015181526020019081526020016000206000820151816000015560208201518160010160006101000a81548160ff021916908360048111156131505761314f614a2c565b5b0217905550604082015181600201908051906020019061317192919061441e565b50606082015181600301908051906020019061318e92919061441e565b5060808201518160040190805190602001906131ab92919061441e565b5060a0820151816005015560c0820151816006015560e08201518160070160006101000a81548173ffffffffffffffffffffffffffffffffffffffff021916908373ffffffffffffffffffffffffffffffffffffffff1602179055506101008201518160080160006101000a81548173ffffffffffffffffffffffffffffffffffffffff021916908373ffffffffffffffffffffffffffffffffffffffff1602179055506101208201518160090160006101000a81548173ffffffffffffffffffffffffffffffffffffffff021916908373ffffffffffffffffffffffffffffffffffffffff16021790555061014082015181600a0160006101000a81548173ffffffffffffffffffffffffffffffffffffffff021916908373ffffffffffffffffffffffffffffffffffffffff16021790555061016082015181600b0190805190602001906132fc92919061441e565b5061018082015181600c01908051906020019061331a92919061441e565b506101a082015181600d0160006101000a81548173ffffffffffffffffffffffffffffffffffffffff021916908373ffffffffffffffffffffffffffffffffffffffff1602179055506101c082015181600e0160006101000a81548173ffffffffffffffffffffffffffffffffffffffff021916908373ffffffffffffffffffffffffffffffffffffffff1602179055506101e082015181600f01559050507f4229d50c63dbdc5551dd68e0a9879b01ac250cb31feaeba7588533462e6c7aaa8160c001516040516133ec9190614cd5565b60405180910390a1505050505050565b613407600333613e8a565b61341057600080fd5b6134198161422f565b50565b6000613429600483613e8a565b9050919050565b61343b600233613e8a565b61344457600080fd5b61344d81614280565b50565b613459336142d1565b565b613466600433613e8a565b61346f57600080fd5b6006546000600481111561348657613485614a2c565b5b6008600083815260200190815260200160002060010160009054906101000a900460ff1660048111156134bc576134bb614a2c565b5b146134c657600080fd5b60086000858152602001908152602001600020600501548211156134e957600080fd5b60006008600086815260200190815260200160002060405180610200016040529081600082015481526020016001820160009054906101000a900460ff16600481111561353957613538614a2c565b5b600481111561354b5761354a614a2c565b5b815260200160028201805461355f90614ca3565b80601f016020809104026020016040519081016040528092919081815260200182805461358b90614ca3565b80156135d85780601f106135ad576101008083540402835291602001916135d8565b820191906000526020600020905b8154815290600101906020018083116135bb57829003601f168201915b505050505081526020016003820180546135f190614ca3565b80601f016020809104026020016040519081016040528092919081815260200182805461361d90614ca3565b801561366a5780601f1061363f5761010080835404028352916020019161366a565b820191906000526020600020905b81548152906001019060200180831161364d57829003601f168201915b5050505050815260200160048201805461368390614ca3565b80601f01602080910402602001604051908101604052809291908181526020018280546136af90614ca3565b80156136fc5780601f106136d1576101008083540402835291602001916136fc565b820191906000526020600020905b8154815290600101906020018083116136df57829003601f168201915b5050505050815260200160058201548152602001600682015481526020016007820160009054906101000a900473ffffffffffffffffffffffffffffffffffffffff1673ffffffffffffffffffffffffffffffffffffffff1673ffffffffffffffffffffffffffffffffffffffff1681526020016008820160009054906101000a900473ffffffffffffffffffffffffffffffffffffffff1673ffffffffffffffffffffffffffffffffffffffff1673ffffffffffffffffffffffffffffffffffffffff1681526020016009820160009054906101000a900473ffffffffffffffffffffffffffffffffffffffff1673ffffffffffffffffffffffffffffffffffffffff1673ffffffffffffffffffffffffffffffffffffffff168152602001600a820160009054906101000a900473ffffffffffffffffffffffffffffffffffffffff1673ffffffffffffffffffffffffffffffffffffffff1673ffffffffffffffffffffffffffffffffffffffff168152602001600b8201805461388190614ca3565b80601f01602080910402602001604051908101604052809291908181526020018280546138ad90614ca3565b80156138fa5780601f106138cf576101008083540402835291602001916138fa565b820191906000526020600020905b8154815290600101906020018083116138dd57829003601f168201915b50505050508152602001600c8201805461391390614ca3565b80601f016020809104026020016040519081016040528092919081815260200182805461393f90614ca3565b801561398c5780601f106139615761010080835404028352916020019161398c565b820191906000526020600020905b81548152906001019060200180831161396f57829003601f168201915b50505050508152602001600d820160009054906101000a900473ffffffffffffffffffffffffffffffffffffffff1673ffffffffffffffffffffffffffffffffffffffff1673ffffffffffffffffffffffffffffffffffffffff168152602001600e820160009054906101000a900473ffffffffffffffffffffffffffffffffffffffff1673ffffffffffffffffffffffffffffffffffffffff1673ffffffffffffffffffffffffffffffffffffffff168152602001600f820154815250509050838160800181905250828160a0018181525050600181602001906004811115613a7957613a78614a2c565b5b90816004811115613a8d57613a8c614a2c565b5b815250503381610140019073ffffffffffffffffffffffffffffffffffffffff16908173ffffffffffffffffffffffffffffffffffffffff168152505080600860008360c0015181526020019081526020016000206000820151816000015560208201518160010160006101000a81548160ff02191690836004811115613b1757613b16614a2c565b5b02179055506040820151816002019080519060200190613b3892919061441e565b506060820151816003019080519060200190613b5592919061441e565b506080820151816004019080519060200190613b7292919061441e565b5060a0820151816005015560c0820151816006015560e08201518160070160006101000a81548173ffffffffffffffffffffffffffffffffffffffff021916908373ffffffffffffffffffffffffffffffffffffffff1602179055506101008201518160080160006101000a81548173ffffffffffffffffffffffffffffffffffffffff021916908373ffffffffffffffffffffffffffffffffffffffff1602179055506101208201518160090160006101000a81548173ffffffffffffffffffffffffffffffffffffffff021916908373ffffffffffffffffffffffffffffffffffffffff16021790555061014082015181600a0160006101000a81548173ffffffffffffffffffffffffffffffffffffffff021916908373ffffffffffffffffffffffffffffffffffffffff16021790555061016082015181600b019080519060200190613cc392919061441e565b5061018082015181600c019080519060200190613ce192919061441e565b506101a082015181600d0160006101000a81548173ffffffffffffffffffffffffffffffffffffffff021916908373ffffffffffffffffffffffffffffffffffffffff1602179055506101c082015181600e0160006101000a81548173ffffffffffffffffffffffffffffffffffffffff021916908373ffffffffffffffffffffffffffffffffffffffff1602179055506101e082015181600f01559050507f738cacb109a17fa3a051c06821ea0a954ef3470d8b8a8d2487c8ea78fa55588485604051613daf9190614cd5565b60405180910390a15050505050565b613dc9600133613e8a565b613dd257600080fd5b613ddb81614322565b50565b600073ffffffffffffffffffffffffffffffffffffffff168173ffffffffffffffffffffffffffffffffffffffff161415613e1857600080fd5b613e228282613e8a565b15613e2c57600080fd5b60018260000160008373ffffffffffffffffffffffffffffffffffffffff1673ffffffffffffffffffffffffffffffffffffffff16815260200190815260200160002060006101000a81548160ff0219169083151502179055505050565b60008073ffffffffffffffffffffffffffffffffffffffff168273ffffffffffffffffffffffffffffffffffffffff161415613ec557600080fd5b8260000160008373ffffffffffffffffffffffffffffffffffffffff1673ffffffffffffffffffffffffffffffffffffffff16815260200190815260200160002060009054906101000a900460ff16905092915050565b613f27600382614373565b8073ffffffffffffffffffffffffffffffffffffffff167f6957811ef5826b0e815d7169ecd0d9887860bfceb2a8c8f7a651b922ce15f4fb60405160405180910390a250565b613f78600582613dde565b8073ffffffffffffffffffffffffffffffffffffffff167ffcd36702cdc849a0f2af09a25d9d3ef48d56aa56cac2968d1357a50831274ad760405160405180910390a250565b613fc9600582614373565b8073ffffffffffffffffffffffffffffffffffffffff167f390aff1c3650dc39762898653cf9b80cd12d64b18f872002b5e0a5869d69e84860405160405180910390a250565b61401a600482613dde565b8073ffffffffffffffffffffffffffffffffffffffff167fb5ba297f8d65a3c4a76f86b55857b92a9214db49c45fe50e12570d391e4a416d60405160405180910390a250565b61406b600282614373565b8073ffffffffffffffffffffffffffffffffffffffff167f6a106c9a574aba9c3bba631b281807e64e83e2b938decf3837bff269c58d3d5060405160405180910390a250565b6140bc600182614373565b8073ffffffffffffffffffffffffffffffffffffffff167fa08e06856dec39e7990cf2890402447eb198eed9b8f0edb2a5cbb52892cb97f960405160405180910390a250565b600073ffffffffffffffffffffffffffffffffffffffff168173ffffffffffffffffffffffffffffffffffffffff161415614172576040517f08c379a000000000000000000000000000000000000000000000000000000000815260040161416990614e0e565b60405180910390fd5b8073ffffffffffffffffffffffffffffffffffffffff1660008054906101000a900473ffffffffffffffffffffffffffffffffffffffff1673ffffffffffffffffffffffffffffffffffffffff167f5c486528ec3e3f0ea91181cff8116f02bfa350e03b8b6f12e00765adbb5af85c60405160405180910390a3806000806101000a81548173ffffffffffffffffffffffffffffffffffffffff021916908373ffffffffffffffffffffffffffffffffffffffff16021790555050565b61423a600382613dde565b8073ffffffffffffffffffffffffffffffffffffffff167f9c24eeb033ad3e85cd7a44241f1f095460380690814e3479480f928a958be9bd60405160405180910390a250565b61428b600282613dde565b8073ffffffffffffffffffffffffffffffffffffffff167f93c7c95ea36a2c6177ad40fd83d25ee462fdcb36b8534396eae86b70c655cc1160405160405180910390a250565b6142dc600482614373565b8073ffffffffffffffffffffffffffffffffffffffff167f60cc1a51c40ed21f0cec408a2cb47893443aa3c912a9be8fe386e61e8706c8d960405160405180910390a250565b61432d600182613dde565b8073ffffffffffffffffffffffffffffffffffffffff167fb5b0df39b444ec594c1a79cb9f43bfa3f32d92ec533a380810974d2c0e48f41860405160405180910390a250565b600073ffffffffffffffffffffffffffffffffffffffff168173ffffffffffffffffffffffffffffffffffffffff1614156143ad57600080fd5b6143b78282613e8a565b6143c057600080fd5b60008260000160008373ffffffffffffffffffffffffffffffffffffffff1673ffffffffffffffffffffffffffffffffffffffff16815260200190815260200160002060006101000a81548160ff0219169083151502179055505050565b82805461442a90614ca3565b90600052602060002090601f01602090048101928261444c5760008555614493565b82601f1061446557805160ff1916838001178555614493565b82800160010185558215614493579182015b82811115614492578251825591602001919060010190614477565b5b5090506144a091906145b7565b5090565b60405180610200016040528060008152602001600060048111156144cb576144ca614a2c565b5b81526020016060815260200160608152602001606081526020016000815260200160008152602001600073ffffffffffffffffffffffffffffffffffffffff168152602001600073ffffffffffffffffffffffffffffffffffffffff168152602001600073ffffffffffffffffffffffffffffffffffffffff168152602001600073ffffffffffffffffffffffffffffffffffffffff1681526020016060815260200160608152602001600073ffffffffffffffffffffffffffffffffffffffff168152602001600073ffffffffffffffffffffffffffffffffffffffff168152602001600081525090565b5b808211156145d05760008160009055506001016145b8565b5090565b6000604051905090565b600080fd5b600080fd5b600073ffffffffffffffffffffffffffffffffffffffff82169050919050565b6000614613826145e8565b9050919050565b61462381614608565b811461462e57600080fd5b50565b6000813590506146408161461a565b92915050565b60006020828403121561465c5761465b6145de565b5b600061466a84828501614631565b91505092915050565b60008115159050919050565b61468881614673565b82525050565b60006020820190506146a3600083018461467f565b92915050565b6000819050919050565b6146bc816146a9565b81146146c757600080fd5b50565b6000813590506146d9816146b3565b92915050565b6000602082840312156146f5576146f46145de565b5b6000614703848285016146ca565b91505092915050565b61471581614608565b82525050565b600081519050919050565b600082825260208201905092915050565b60005b8381101561475557808201518184015260208101905061473a565b83811115614764576000848401525b50505050565b6000601f19601f8301169050919050565b60006147868261471b565b6147908185614726565b93506147a0818560208601614737565b6147a98161476a565b840191505092915050565b6147bd816146a9565b82525050565b600060e0820190506147d8600083018a61470c565b6147e5602083018961470c565b81810360408301526147f7818861477b565b9050818103606083015261480b818761477b565b905061481a608083018661470c565b61482760a083018561470c565b61483460c08301846147b4565b98975050505050505050565b600080fd5b600080fd5b7f4e487b7100000000000000000000000000000000000000000000000000000000600052604160045260246000fd5b6148828261476a565b810181811067ffffffffffffffff821117156148a1576148a061484a565b5b80604052505050565b60006148b46145d4565b90506148c08282614879565b919050565b600067ffffffffffffffff8211156148e0576148df61484a565b5b6148e98261476a565b9050602081019050919050565b82818337600083830152505050565b6000614918614913846148c5565b6148aa565b90508281526020810184848401111561493457614933614845565b5b61493f8482856148f6565b509392505050565b600082601f83011261495c5761495b614840565b5b813561496c848260208601614905565b91505092915050565b6000806040838503121561498c5761498b6145de565b5b600061499a858286016146ca565b925050602083013567ffffffffffffffff8111156149bb576149ba6145e3565b5b6149c785828601614947565b9150509250929050565b60006020820190506149e6600083018461470c565b92915050565b60008060408385031215614a0357614a026145de565b5b6000614a11858286016146ca565b9250506020614a22858286016146ca565b9150509250929050565b7f4e487b7100000000000000000000000000000000000000000000000000000000600052602160045260246000fd5b60058110614a6c57614a6b614a2c565b5b50565b6000819050614a7d82614a5b565b919050565b6000614a8d82614a6f565b9050919050565b614a9d81614a82565b82525050565b600061010082019050614ab9600083018b6147b4565b614ac6602083018a614a94565b8181036040830152614ad8818961477b565b90508181036060830152614aec818861477b565b90508181036080830152614b00818761477b565b9050614b0f60a08301866147b4565b614b1c60c083018561470c565b614b2960e083018461470c565b9998505050505050505050565b600080600080600060a08688031215614b5257614b516145de565b5b600086013567ffffffffffffffff811115614b7057614b6f6145e3565b5b614b7c88828901614947565b9550506020614b8d888289016146ca565b9450506040614b9e888289016146ca565b935050606086013567ffffffffffffffff811115614bbf57614bbe6145e3565b5b614bcb88828901614947565b925050608086013567ffffffffffffffff811115614bec57614beb6145e3565b5b614bf888828901614947565b9150509295509295909350565b600080600060608486031215614c1e57614c1d6145de565b5b6000614c2c868287016146ca565b935050602084013567ffffffffffffffff811115614c4d57614c4c6145e3565b5b614c5986828701614947565b9250506040614c6a868287016146ca565b9150509250925092565b7f4e487b7100000000000000000000000000000000000000000000000000000000600052602260045260246000fd5b60006002820490506001821680614cbb57607f821691505b60208210811415614ccf57614cce614c74565b5b50919050565b6000602082019050614cea60008301846147b4565b92915050565b7f4e487b7100000000000000000000000000000000000000000000000000000000600052601160045260246000fd5b6000614d2a826146a9565b9150614d35836146a9565b925082821015614d4857614d47614cf0565b5b828203905092915050565b6000614d5e826146a9565b91507fffffffffffffffffffffffffffffffffffffffffffffffffffffffffffffffff821415614d9157614d90614cf0565b5b600182019050919050565b7f796f75277265206c6f6f6b696e6720666f722072656e6f756e63654f776e657260008201527f7368697028290000000000000000000000000000000000000000000000000000602082015250565b6000614df8602683614726565b9150614e0382614d9c565b604082019050919050565b60006020820190508181036000830152614e2781614deb565b905091905056fea26469706673582212208ed3c7dddb97fcd0406d0ea29f6854c5fe63a87062f0b972ccfdafc9dc3f400e64736f6c634300080b0033",
  "immutableReferences": {},
  "source": "pragma solidity >=0.8.0;\nimport \"../accesscontrol/MinerRole.sol\" as Miner;\nimport \"../accesscontrol/GraderRole.sol\" as Grader;\nimport \"../accesscontrol/MerchantRole.sol\" as Merchant;\nimport \"../accesscontrol/LapidaryRole.sol\" as Lapidary;\nimport \"../accesscontrol/ClientRole.sol\" as Client;\nimport \"../core/Ownable.sol\" as Ownable;\ncontract SupplyChain is Ownable.Ownable,\n                    Miner.MinerRole ,\n                     Grader.GraderRole,\n                     Merchant.MerchantRole,\n                     Lapidary.LapidaryRole,\n                     Client.ClientRole\n                     \n    {\n\n    //address owner;\n    uint _upc;\n    uint _sku;\n    \n    mapping (uint => Stone) stones;\n\n    mapping (uint => string[]) stonesHistory;\n\n    enum State\n    {\n        Rough,\n        Faceted,\n        Graded,\n        ForSale,\n        Sold\n    }\n\n    struct Stone{\n        uint sku;\n        State state;\n        string stoneType;\n        string grade;\n        string cut;\n        uint weight;\n        uint upc;\n        address ownerId;\n        address minerId;\n        address graderId;\n        address lapidaryId;\n        string mineLatitude;\n        string mineLongitude;\n        address merchantId;\n        address clientId;\n        uint price;\n    }\n\n    event Mined(uint upc);\n    event Faceted(uint upc);\n    event Graded(uint upc);\n    event ForSale(uint upc);\n    event Sold(uint upc);\n\n    modifier verifyCaller (address _address) {\n        require(msg.sender == _address);\n        _;\n    }\n\n    modifier paidEnough(uint _price){\n        require (msg.value >= _price);\n        _;\n    }\n\n    modifier checkValue(uint __upc) {\n        _;\n        uint _price = stones[__upc].price;\n        uint amountToReturn = msg.value - _price;\n        address payable addressToReturn = payable(stones[__upc].clientId);\n        addressToReturn.transfer(amountToReturn);\n    }\n\n    modifier rough(uint __upc) {\n        require(stones[__upc].state == State.Rough);\n        _;\n    }\n\n     modifier faceted(uint __upc) {\n        require(stones[__upc].state == State.Faceted);\n        _;\n    }\n\n     modifier graded(uint __upc) {\n        require(stones[__upc].state == State.Graded);\n        _;\n    }\n\n     modifier forSale(uint __upc) {\n        require(stones[__upc].state == State.ForSale);\n        _;\n     }\n     modifier sold(uint __upc) {\n        require(stones[__upc].state == State.Sold);\n        _;\n    }\n\n    constructor() payable Ownable.Ownable() \n                            Miner.MinerRole()\n                            Merchant.MerchantRole()\n                            Grader.GraderRole()\n                            Lapidary.LapidaryRole()\n                            Client.ClientRole(){\n        _sku = 1;\n        _upc = 1;\n        }\n    \n\n\n       function mineStone(string memory _type,\n        uint _weight,\n         uint _price, \n        string memory _latitude,\n        string memory _longitude) public onlyMiner {\n\n            Stone memory newStone;\n            newStone.stoneType = _type;\n            newStone.state = State.Rough;\n            newStone.weight = _weight;\n            newStone.price = _price;\n            newStone.sku = _sku;\n            _sku++;\n            newStone.upc = _upc;\n            _upc++;\n            newStone.minerId = msg.sender;\n            newStone.mineLatitude = _latitude;\n            newStone.mineLongitude = _longitude;\n            stones[newStone.upc] = newStone;\n            emit Mined(newStone.upc);\n        }\n           \n\n        function facetStone(uint __upc,\n        string memory _cut,\n        uint cutWeight) public onlyLapidary rough(_upc){\n            require(cutWeight <= stones[__upc].weight);\n            Stone memory cutStone = stones[__upc];\n            cutStone.cut = _cut;\n            cutStone.weight = cutWeight;\n            cutStone.state = State.Faceted;\n            cutStone.lapidaryId = msg.sender;\n            stones[cutStone.upc] = cutStone;\n            emit Faceted(__upc);\n        }\n\n        function gradeStone(uint __upc,\n        string memory _grade) public onlyGrader faceted(__upc) {\n            Stone memory gradedStone = stones[__upc];\n            gradedStone.grade = _grade;\n            gradedStone.state = State.Graded;\n            gradedStone.graderId = msg.sender;\n            stones[gradedStone.upc] = gradedStone;\n            emit Graded(__upc);\n        }\n\n        function sellStone(uint __upc, uint _price) public\n        onlyMerchant graded(__upc){\n            Stone memory stoneForSale = stones[__upc];\n            stoneForSale.price = _price;\n            stoneForSale.state = State.ForSale;\n            stoneForSale.merchantId = msg.sender;\n            stones[stoneForSale.upc] = stoneForSale;\n            emit ForSale(__upc);\n        }\n\n        function buyStone(uint __upc) public payable forSale(__upc) \n        paidEnough(stones[__upc].price)\n        checkValue(__upc)\n        onlyClient {\n            Stone memory soldStone = stones[__upc];\n            soldStone.ownerId = msg.sender;\n            soldStone.state = State.Sold;\n            soldStone.clientId = msg.sender;\n            stones[soldStone.upc] = soldStone;\n            emit Sold(__upc);\n        }\n\n         function fetchItemBuffer1(uint __upc) public view returns\n    (\n        uint sku,\n        State state,\n        string memory stoneType,\n        string memory grade,\n        string memory cut,\n        uint weight,\n        address ownerId,\n        address minerId\n\n    ){\n         Stone memory current = stones[__upc];\n        return (\n            current.sku,\n            current.state,\n            current.stoneType,\n            current.grade,\n            current.cut,\n            current.weight,\n            current.ownerId,\n            current.minerId\n        );\n    }\n\n    function fetchItemBuffer2(uint __upc) public view returns (\n        address graderId,\n        address lapidaryId,\n        string memory mineLatitude,\n        string memory mineLongitude,\n        address merchantId,\n        address clientId,\n        uint price\n    ){\n        Stone memory current = stones[__upc];\n\n        return (\n            current.graderId,\n            current.lapidaryId,\n            current.mineLatitude,\n            current.mineLongitude,\n            current.merchantId,\n            current.clientId,\n            current.price\n        );\n    }\n}",
  "sourcePath": "/home/tcdkzrz/Documents/Blockchain/Solidity/Projects/contracts/base/SupplyChain.sol",
  "compiler": {
    "name": "solc",
    "version": "0.8.11+commit.d7f03943.Emscripten.clang"
  },
  "schemaVersion": "3.4.1",
  "updatedAt": "2022-01-24T21:07:47.057Z",
  "networkType": "ethereum",
  "devdoc": {
    "kind": "dev",
    "methods": {},
    "version": 1
  },
  "userdoc": {
    "kind": "user",
    "methods": {},
    "version": 1
  }
}